:4000000000800020110000000D1500000D15000008B5044B1A6803F53F5302331A6001F095FA00BFFA46004010B5054C237833B9044B13B10448AFF300800123237010BDA3
:400040009082FF1F00000000582F0000084B10B51BB108490848AFF300800848036803B910BD074B002BFBD0BDE81040184700BF000000009482FF1F582F0000C880FF1F62
:40008000000000002DE9F0476C4C2468002C7DD00A280AD100230B80A17A684B1879138800FB01331380BDE8F0870D2800F0C380257A667AA842C0F0BE80B04200F2BB80C5
:4000C000401B656805EBC0008578C67890F804E090F9057090F90600DFF860C19CF805C0BCF1000F18D0B1F900A007EB050CDFF84C8198F804900CFB09ACB8F90680C445EE
:400100000ADD4FF0000CA1F800C0A47AB2F800C009FB04C9A2F80090B1F900C0474C247907FB04C7BFB20FFA87FCB2F9002000FB042080B20FFA80F805FB0472013A12B23B
:4001400006FB0400013800B2B3F90050AC4501DAA3F800C0089BB3F90030984502DA089BA3F80080099BB3F900309A4201DD099B1A800A9BB3F90030984201DD0A9B188088
:400180000B880EFB04340C80BDE8F0870A2809D100230B80294B1979138803EBC1031380BDE8F0870D2846D02448407988B1B1F90070224D2C7904EB440670003844B5F95D
:4001C0000650A84205DD00200880108800EBC4041480B1F900601948007900EB40056C003444013CB2F9005005EBC005013D099EB6F90060B44201DD099E34800A9CB4F9FB
:400200000040A54201DD0A9C2580B1F90040B3F90050AC4200DA1C80B2F90030089AB2F90020934201DA089A138000EB400042000B8813440B80BDE8F08700BFAC82FF1FEE
:4002400038B5134B988908B319461C89631C9BB2104AA2FB03525209642505FB12330B810138888101EB44018B7B13B1012B04D006E0002001F056FF02E0012001F052FFB8
:40028000034B03EB4404E07B01F08AFF38BD00BFAC82FF1F1F85EB5130B5ABB01B4B9B89632B17D92AAD032305F8A83D184B1868CDF80100174C0FCCCDF81100CDF8151037
:4002C000CDF81920CDF81D30284600F035FC6FF0070019E00D4D6C89621C92B205EB4404A073E1730C49A1FB02014909642000FB11226A8101339BB2AB81012B03D1FFF7CA
:400300009FFF002000E000202BB030BDAC82FF1FB4340000B83400001F85EB512DE9F04180460E4617461D462A210020FFF7B4FF00210120FFF7B0FF194C94F8D6104144BF
:40034000C9B20120FFF7A8FF00210120FFF7A4FF94F8D6103944C9B20120FFF79DFF2B210020FFF799FF00210120FFF795FF94F8D7103144C9B20120FFF78EFF002101203D
:40038000FFF78AFF94F8D7102944C9B20120FFF783FF2C210020FFF77FFFBDE8F08100BFAC82FF1F10B5044636210020FFF774FF04F003002A4B83F8D80003284ED8DFE802
:4003C00000F00215283BC2210120FFF765FF244BA022A3F8DA208022DA8093F8DC2083F8D62093F8DD2083F8D72010BDA2210120FFF752FF1A4BA022DA808022A3F8DA20D1
:4004000093F8DC2083F8D72093F8DD2083F8D62010BD08210120FFF73FFF114BA022A3F8DA208022DA8093F8DC2083F8D62093F8DD2083F8D72010BD62210120FFF72CFF4C
:40044000074BA022DA808022A3F8DA2093F8DC2083F8D72093F8DD2083F8D62010BD00BFAC82FF1F024BA3F8DE00A3F8E0107047AC82FF1F024BA3F8E200A3F8E4107047A9
:40048000AC82FF1F014B5871704700BFAC82FF1F08B90120FFE7014B18717047AC82FF1F024648B10A4B1B687BB90949B1F8E0300633A1F8E03008E0054B1B682BB104495B
:4004C000B1F8E030063BA1F8E030014B1A607047AC82FF1F2DE9F04188B098460E9E0F9F109DADF81610ADF814201980328000232B803B80204BDA88ADF81E20B3F8DA304F
:40050000ADF81C304FF6FF73ADF81A30ADF818300EE006AB02930DF11A03019307AB00930DF11E0305AA0DF11601FFF7ABFD2046441C00780028ECD1BDF91A20BDF91E3077
:400540009A4208DBA8F80030BDF81A30BDF81E209B1A01333B80BDF91820BDF91C309A4207DB3380BDF81830BDF81C209B1A01332B8008B0BDE8F081AC82FF1F2DE9F04112
:400580001F46BDF818501F4BB3F90630834236DD90461C4AB2F8DA20914230DA00EB0804013C9C4202DB1B1A0FFA83F87B18013B9A4201DC571A3FB2C0B2C9B2CB19013B39
:4005C00000EB0802013ADBB2D2B2FFF7A7FE2E0AEDB2012001F0A6FD0FE031460220FFF75BFE29460220FFF757FE013C24B200E04446002CF1DC013F3FB2002FF8DCBDE891
:40060000F08100BFAC82FF1F00B583B0064AB2F9DA30B2F90620009000210846FFF7AEFF03B05DF804FB00BFAC82FF1FF8B5364B8022DA80A022A3F8DA20002483F8D84094
:40064000A3F8DE40A3F8E04001251D714FF6FF72A3F8E220A3F8E4405D711C6083F8DD4083F8DC4083F8D64083F8D7401C815C819C8101F0D3FD284601F060FD642001F01B
:400680000DFD204601F05AFD642001F007FD284601F054FD142001F001FD29462046FFF7FBFD322001F0FAFC11212046FFF7F4FD782001F0F3FC0F22144D14E02C4614F83F
:4006C000021B0020FFF7E8FD6A78254606E06E1C29780120FFF7E0FD22463546531EDCB2002AF4D13A46531EDFB2002AE6D10220FFF758FE0020FFF787FF01F00BFE6420D4
:4007000001F0BCFDF8BD00BFAC82FF1F5D2F0000002821DB114BB3F9063098421CDA00291ADB0E4BB3F8DA30994215DA10B51446C0B2C9B24B1C421CDBB2D2B2FFF7EEFDD8
:40074000012001F0EFFC210A0220FFF7A5FDE1B20220FFF7A1FD10BD704700BFAC82FF1FF8B51E46164BB3F90630834226DD1546134BB3F8DA30994220DA0A44013A934202
:4007800001DC5D1A2DB2C0B2C9B24B19013BDBB20246FFF7C3FD370AF6B2012001F0C2FC08E039460220FFF777FD31460220FFF773FD25466A1E14B2002DF2D1F8BD00BF26
:4007C000AC82FF1F2DE9F04F8BB00290039115460493BDF850709DF854A07F4B1A68002A40F09080B3F906300146834240F3F180794BB3F8DA300398984280F2EA800AEB00
:400800004A0253000B44012B00F1E38000EBCA03012B00F1DE804FF00008894683460595049E4EE0059B03EB830343446B4A134493F8585000243EE015F0010F1BD0BAF107
:40084000010F09D104EB0B0108EB0900324609B200B2FFF75DFF2BE01FFA8AF00FFA8AF204FB00B108FB00900096134609B200B2FFF784FE1CE0BE421AD0BAF1010F09D1AB
:4008800004EB0B0108EB09003A4609B200B2FFF73FFF0DE01FFA8AF00FFA8AF204FB00B108FB00900097134609B200B2FFF766FE013464B26D08072CBEDD08F101084FFA48
:4008C00088F8B8F1040FADDD049BBB4200F08180BAF1010F08D1029805303B460822039900B2FFF73DFF74E01FFA8AF303EB8300029A10440097DB005246039900B2FFF77E
:400900003DFE66E0137AEB1ADBB2506800EBC301D2F800B030F8337091F80280CB78079391F90530089391F906200992BAF1010F04D91BB2059313B2069302E000230693E5
:40094000059300231C46994640E05E1CF6B213F0070F03D17B1C1BF807409FB214F0800F27D0BAF1010F0DD1099B039A99184944089B029A98182844049A09B200B2FFF70C
:40098000C7FE16E0059B58191FFA8AF3069A02EB09010FFA8AFE039A01FB0321029A00FB0320049B00937246734609B200B2FFF7E5FD6400E4B20135EDB2334600E0002501
:4009C0004545C2D309F101095FFA89F9079A9145F5D30BB0BDE8F08FAC82FF1F5C2F000070B582B04E4B1B68002B43D10A280BD14B4B0022A3F8DE201979B3F8E02002EBC9
:400A0000C102A3F8E02088E00D2800F08680444B5B79ABB1424A117901EB41046300B2F8DE402344B2F90620934209DD3C4B0022A3F8DE20B3F8E02002EBC101A3F8E0107A
:400A4000374CB4F8E230B4F9E010B4F9DE5022790192B4F8E420009202462846FFF7B2FE237903EB43035A00B4F8DE301344A4F8DE3052E00A280CD1294A0021A2F8DE10AF
:400A8000997A1079B2F8E03000FB0133A2F8E03043E00D2841D01A7A90423ED3597A88423BD8821A5C6804EBC204A278E1785AB351B394F905501A494979A9B118490E7995
:400AC0002A44B1F8DE5002FB0652B1F906108A420ADD134A0021A2F8DE109B7AB2F8E01006FB0316A2F8E0600D4AB2F8E230B2F9E010B2F9DE5016790196B2F8E420009253
:400B000002462846FFF75EFE2179054B1879B3F8DE2000FB0122A3F8DE2002B070BD00BFAC82FF1F10B5044602E00134FFF758FF20780028F9D110BD10B50446013001F0ED
:400B4000CFFA064801F0CCFA04F1110001F0C8FA034801F0C5FA002010BD00BFDC340000C834000008B5002000F03CFF08BD00BF684620F007018D4619B572B6EFF31184A9
:400B80001E4B1B68DBB20F2B10D9103B23F0030202F1604202F564421168DB0003F01803E0229A400A4022FA03F306E00F2B03D1134B1B681B0E00E0002383F31188114AFF
:400BC000136801331360012B01D101F0EFFB62B6FFF7C8FF72B684F3118801F0FDF8094A1368013B13601BB901F0E9FB01F0ADFB62B6BDE819408546704700BF04ED00E020
:400C000020ED00E01484FF1F08B562B645F6BF52054B1A60054A136843F002031360002001F0C8F9FBE700BF14E000E010E000E008B5FFF7FBFC01F021FA094A136843F0E3
:400C40000503136001221146002000F04DFD032000F0D6FC012000F0D3FC01F0F1F908BD10E000E000BFFDE7214B9B681A68002A3DD030B583B01E4A127802A800F8042D48
:400C80001B689847D8B99DF80410194B9A6819700021596002215970556993682BB33DB923E0996855F8240000F042FF013400E000240F4B9B681A699442F2D315E00C4BB0
:400CC00003225A709B68DD69DB6873B13DB90CE0D96855F8240000F02BFF013400E00024034B9B689A699442F2D303B030BD7047E880FF1F08B5034B1978034800F084F94E
:400D000008BD00BFE880FF1F9283FF1FF0B58FB06D4E7578B4786D4B1B88ADF830300420FFF7B6FB0020FFF7BBFB0020FFF7AAFBF378002B52D1664B1B68ADF824301A0C00
:400D40008DF826203A21ADF81410ADF828308DF82A200DF12207029707AB01930DF11A06009606AB0022114609A8FFF7B3FB02970DF11E030193009606AB0022114605A8C6
:400D8000FFF7A8FB029708AB0193009606AB002211460AA8FFF79EFBBDF81C30BDF81E609A19BDF820101144C1F1800202EBD272BDF82210C1F1A00101EBD17142F34F0245
:400DC000414882801A4493B2C3803344038141F34F0343818381C3810123C3703D4B1B789D4205D19DF83020374B1B7C9A4220D0384B1D709DF83060334B1E742A463649D0
:400E00000AA801F085FC2EB14FF6FF710020FFF731FB04E000214FF6FF70FFF72BFB2A4BB3F90E10B3F90400FFF71CFB0AA8FFF779FE284B5B789C4205D19DF83120224B7B
:400E40005B7C9A4220D0234B5C709DF831501E4B5D74224620490AA801F05AFC2DB14FF6FF710020FFF706FB04E000214FF6FF70FFF700FB144BB3F90A10B3F90800FFF758
:400E8000F1FA0AA8FFF74EFE124B9B780BB1134900E013490BA801F03BFC00214FF6FF70FFF7E8FA084BB3F90C10B3F90600FFF7D9FA0BA8FFF736FE064A9378B3FA83F316
:400EC0005B0993700FB0F0BD9283FF1FF480FF1FF0340000CC80FF1FE8340000E0340000E434000000B583B000230193012000F09FFE01A9032000F0FBFD019800F0CAFD32
:400F0000019A0121014800F069F9EFE7F434000010B5084C22680221074800F047F923680133236013F5807F01D90022226001F087F810BDA483FF1F00350000094A1378BA
:400F40000133DBB213703B2B0BD9074A13780133DBB213700021034A1170172B01D9024B197070479483FF1F9383FF1F08B50221014800F0DDF808BDDC80FF1F08B50221B5
:400F8000034800F0D5F80221024800F0D1F808BDDC80FF1FD080FF1F08B50121014800F0C7F808BDDC80FF1F08B50321014800F0BFF808BDDC80FF1F08B50421014800F015
:400FC000B7F808BDDC80FF1F08B50221014800F0AFF808BDD080FF1F08B50121014800F0A7F808BDD080FF1F08B50321014800F09FF808BDD080FF1F08B50421014800F027
:4010000097F808BDD080FF1F2DE9F04782468946002629E006EB46029300154AD2589AF800309A421ED1124873009A19910001444D68B1F80880002412E02301EF18EB5C35
:401040004B450BD1BB680BB1984738B1FB6803B198477B688AF80030BDE8F0870134A4B24445EAD30136F6B2022ED3D9BDE8F08714350000074B1B685BB15A684AB111789E
:40108000013111705A6811781B7A994201D3002313707047A883FF1F704700BF30B585B0214B1B88ADF80C30ADF808301F4B1B685B7A012B05D18DF8083000238DF8093089
:4010C00012E053B9194B1B793BB98DF8083001238DF80930154A137106E000238DF808308DF80930114A1371BDF80810ADF804100D4B9A68198000215960022199705569E4
:40110000936873B13DB90CE0996855F8240000F00FFD013400E00024034B9B681A699442F2D305B030BD00BFF480FF1FA883FF1F2DE9F047824688461A4B1860002629E06D
:4011400006EB46029300184AD2589AF800309A421ED1154873009A19910001444D68B1F80890002412E02301EF18EB5C43450BD1BB680BB1984738B1FB6803B198477B68CF
:401180008AF80030BDE8F0870134A4B24C45EAD30136F6B2012ED3D90022024B1A60BDE8F08700BFA883FF1FDC350000F8B506460F46154600240DE006EBC4039A88B5FB6C
:4011C000F2F302FB13531BB956F83430002098470134A4B2BC42EFD30020F8BDF8B505460E461746002409E005EBC4035868384202D055F8343098470134A4B2B442F3D3B2
:401200000020F8BD002070470020704738B5044600F078FF054600F07DFF0023237025B11A4B1B780BB90223237020B1174A5388013353800FE0154B1B7963B1134B5B888A
:40124000132B02D90323237002E00BB10123237000220E4B5A800D4B1D701871DA88511CD980042A04D9042323700022074BDA80064A9368591C9160B3F5966F04D305236C
:4012800023700022014B9A60002038BDB083FF1F00207047FEE700BFF0B40022174611E050F82760F3B226F0FF0608E001EB420511F812406D78A5550132013BDBB2002B33
:4012C000F4D10137152FEBD9F0BC7047064B1B78DBB203F00701054A11701B09013213704422034B1A707047CF0100496E5800407658004008B50A46002101F000FA08BD70
:4013000038B50024284B1C80582202331A70192502331D801823254A137041F2BF2102321180023213700222214B1A7008224FF040231A70032103F5007319701D4B1B7805
:40134000DBB21D490B701D4B1A8041F25122023B1A800CE01A4B1B7803F0010343EA440404F003044FF4F07001F0A6F8013D0DB1032CEFD115B90320FFF78CFF114B4FF407
:4013800080721A8007221A7000220F490A704820023108701A700222033B1A700B4A137843F00703137038BD80400040864000400043004008010049A14600402242004036
:4013C000254200400440004006400040A243004008B501F089F908BD38B572B6384A137843F00403137000240CE0364D630019194A0011462A44084691882858FFF77AFFB6
:401400000134E4B2062CF0D900240BE02D49A3001819420088180622016BC06AFFF7D8FF0134E4B2002CF1D027494FF09040FFF733FF264A137843F002031370103213783E
:4014400043F002031370224C237843F040032370A2F58632513A137843F01003137008221C491D48FFF7B4FF0A221C491C48FFF7AFFF08221B491C48FFF7AAFF08221B491C
:401480001B48FFF7A5FF08221A491B48FFF7A0FF1A4A137843F008031370194D61232B70FFF72EFF81232B700122164B1A70FFF70DFF0E2221461448FFF78AFF38BD00BFDD
:4014C000E8460040BC3600005800004803500140A0430040800600480251004088060048C051004094060048125100409C06004822510040A4060048325100402243004031
:401500000048004004000840B043004008B501F0BFF803680C2B00D1FEE7FEE708B5094B1A681044084BC31A802B02DC054B186005E001F0ADF80C2303604FF0FF321046C7
:4015400008BD00BF0081FF1F408AFF1F08B5104E104D16E029686B68AC68002204E051F8040B43F8040B0432A242F8D1E868002203E0002143F8041B04328242F9D1103516
:40158000013E002EE6D101F089F8FFF73DFBFEE7010000005039000008B5104A104B1A60104A136843F40073136000230AE0032B03D80D4A52F8231000E00C490C4A42F86B
:4015C000231001332F2BF2D90A4B1A780A4B1A70074A0A4B1A60FFF7FFFE08BD0004FA050CED00E014ED00E0000000000D1500000080FF1FBC760040C080FF1F08ED00E09F
:4016000038B5EFF3108572B603284ED82D4B53F82030002B4BD02B4A013B42F820302A4B53F82030032B07D10222274B43F820200022264B43F8202000F03EFC244B1B68E8
:40164000002B36D1234B1C6800F014FCB0F1FF3F31D0214B53F82020204B1B689A422CD9B4F1FF3F03D00221174A42F824101C4A52F820201343194A13600022124B43F822
:40168000202000F0B3FB174B53F820304BB10024144B43F8204040F0004000F099FE20460CE000F095FE002008E0032006E0042004E0002002E0002000E0002085F310881E
:4016C00038BD00BF4081FF1FE481FF1FDC83FF1F1484FF1FD081FF1F68380000F483FF1F54380000BC83FF1FF8B5EFF3108472B628BB00EB4005AB00184DEB5803EB43062C
:40170000B500174E75598D421BD34AB103EB43039E00134B1E44B3689A4214D3954214D3A9B103010F4DEB589BB90301EE180127EF507260013900F087F800200AE0032071
:4017400008E0082006E0082004E0082002E0082000E0072084F31088F8BD00BF14380000283800003C84FF1F18B108B5C368984708BD704708B508B1406800E000200328CC
:4017800016D80C4B53F8203093B10A4A013B42F82030094B53F82030032B07D10222064B43F820200022054B43F8202000F084FB08BD00BF4081FF1FE481FF1FDC83FF1F47
:4017C00018B1034640689B6801E00023184603281DD80F4A52F82020CAB10E4A52F82010032914D010B50C4C54F820201A4344F820200A4A52F82020134207D0012905D1DE
:401800000222044B43F8202000F056FB10BD704734380000E481FF1FDC83FF1FCC83FF1F80B108B50378012B06D013B1032B06D008BDFFF79FFF08BDFFF7C2FF08BDFFF759
:4018400093FF08BD704700BF30B400EB40029300214AD258214B03EBC2035C68B4F1FF3F04D11E4B03EBC20250602DE01C4B03EB04139B6899420AD2184D05EBC202506000
:40188000174A02EB04125B1A93601DE01C46144B03EB04139A68891ADB68B3F1FF3F05D00F4A02EB031292689142EFD2B3F1FF3F05D00B4A02EB031295686D1A9560084A38
:4018C00002EB0414E0601C46054B03EB00108160C46030BC704700BF143800000881FF1F3C84FF1F38B5394A02EBC0035C6852F83030013342F8303000EB40018A0034492C
:401900008A58934203D90022304B43F83020B4F1FF3F59D02F4B03EB04139B68002B4ED1214600E019462B4B03EB0113DB68B3F1FF3F05D0274A02EB03129268002AF1D0A4
:40194000244A02EB01114FF0FF32CA601F4A02EBC0004360B3F1FF3F07D01E4A02EB03139A68013A9A6000E02C4604EB44029300194A13441B7A7BB904EB44029300164A87
:4019800013445A68154B53F8223003EB83039A0013481044FFF744FF0E4B03EB0413DD68596821B101392046FFF74EFF03E024010022084B1A51B5F1FF3FD5D138BD054A4C
:4019C00002EB0414013BA36038BD00BF0881FF1F283800003C84FF1F14380000243800000038000038B5EFF3108572B6002838D1FFF778FF204B1B68002B34D11F4B1C68F4
:401A000000F038FAB0F1FF3F2FD01D4B53F820201C4B1B689A422AD9B4F1FF3F03D00221194A42F82410194A52F820201343154A13600022144B43F8202000F0D7F9144B10
:401A400053F820304BB10024114B43F8204040F0004000F0BDFC20460AE000F0B9FC002006E0032004E0002002E0002000E0002085F3108838BD00BF1484FF1FD081FF1F8E
:401A800068380000F483FF1FE481FF1F54380000BC83FF1FEFF3108372B6114A1168114A126882B9B1F1FF3F0FD00F4A52F821206AB110B40D4C54F8212022EA000044F854
:401AC0002100002007E0022002E0022000E0012083F31088704783F3108810BC704700BFD081FF1F1484FF1F34380000DC83FF1F03280FD80B4B53F820306BB10A4B53F8B5
:401B00002030032B0AD059B1084B53F820300B60002070470320704701207047072070470E20704734380000E481FF1FDC83FF1F38B5EFF3108472B6032853D8324B53F889
:401B40002030002B50D0314B53F82030032B4DD02F4D55F820200A4345F820202D4A52F82020114244D0012B44D10222274B43F8202000F0A1F9284B1B68002B3CD1274BB1
:401B80001D6800F077F9B0F1FF3F37D0244B53F82020244B1B689A4232D9B5F1FF3F03D002211A4A42F825101F4A52F8202013431C4A13600022154B43F8202000F016F9BC
:401BC0001A4B53F820304BB10025184B43F8205040F0004000F0FCFB284612E000F0F8FB00200EE003200CE001200AE0072008E0002006E0002004E0002002E0002000E0D9
:401C0000002084F3108838BD34380000E481FF1FDC83FF1FCC83FF1F1484FF1FD081FF1F68380000F483FF1F54380000BC83FF1F38B5EFF3108472B6364B1D68364B1B68CF
:401C4000002B5DD1B5F1FF3F5CD0344B53F82530002B59D0324B53F82530034256D1314B43F825000122304B43F825202F4B53F825002F490B6823EA00030B602D4B43F802
:401C800025202D4B53F82520224B1A6000F0F2F8B0F1FF3F06D0294B53F82020244B1B689A420DD81B4B1868B0F1FF3F03D000221D4B43F8202040F0004000F089FB1AE034
:401CC0000021194A42F82010184A52F820201343174A136000F08AF8164B53F8203043B10022144B43F8202040F0004000F070FB01E000F06DFB00200A4B43F8250006E0C3
:401D0000022004E0022002E0012000E0002084F3108838BDD081FF1F1484FF1F34380000DC83FF1FCC83FF1FE481FF1F54380000F483FF1FBC83FF1FD481FF1F68380000E5
:401D400008B500F053F8084B53F8203043B10022054B43F8202040F00040044B186008BD024B186008BD00BFBC83FF1F1884FF1F10B500F07FF8124B1B68B0F1FF3F1AD06B
:401D8000104A52F82010104A1268914213D9B3F1FF3F03D002240D4941F8234000210B4B43F820100A4B53F820301A43064B1A60FFF7C6FF10BD43F00043064A136010BD67
:401DC000D081FF1F68380000F483FF1FE481FF1F543800001884FF1F034B1B6813B10022014B1A60704700BF0884FF1FF0B4184B19880B0A174AD356B3F1FF3F01D1535635
:401E000001E008335BB2144D55F82320134850F82200134E56F8224045F82340114D2F6846F822702A60B4F1FF3F09D10E4A42F82340012202FA03F321EA0301044B198005
:401E40000A4B19680A4A42F820101860F0BC7047F083FF1FF43600009081FF1F1C84FF1F2081FF1FEC83FF1F5081FF1FD081FF1FD481FF1F0C4B1A88130A0C49CB56B3F1FE
:401E8000FF3F01D18B5601E008335BB2B3F1FF3F06D0074A52F82320064B53F8220070474FF0FF30704700BFF083FF1FF43600009081FF1F1C84FF1F30B4144B53F82020A3
:401EC000134C2368134951F823502560124C44F823004FF0FF3441F82340104951F82210A1420AD10E4951F820400E480188214301800D4941F8223002E0064840F82130A0
:401F0000064941F8223030BC704700BF3081FF1FEC83FF1F2081FF1F1C84FF1F5081FF1F68380000F083FF1F9081FF1F10B150F8210070474FF0FF30704700BF0122014B09
:401F40001A60FEE71084FF1F70B50546124B53F8306000241CE0104B03EBC50321465868FFF7E4FF0D4A52F82030013B42F820300B4B53F82030032B07D10222084B43F817
:401F800020200022074B43F82020FFF795FF0134B442E0D370BD00BFF43700004081FF1FE481FF1FDC83FF1F18B908B5FFF7CCFF08BD7047194B1A4ADA621A4A9A631A4A00
:401FC000DA63EFF3108272B6184B1B6813BB10B5044600F053F8164B1C600122134B1A602046FFF7E1FFFFF745FFB0F1FF3F0ED0104B53F82030104A11680B431360002253
:402000000E4B43F82020FFF7F1FE00F0E1F962B6FFF794FF82F31088072070470080FF1F9123000055230000710B00001084FF1F4C84FF1F54380000F483FF1FE481FF1F07
:4020400008B5EFF3108272B6094B1968094B1B6833B94FF0FF30084B43F82100002000E0022010B9084600F00CFA82F3108808BDD081FF1F1484FF1F1081FF1F10B5EFF3D6
:40208000108472B600F054F9034A136843F07F43136084F3108810BD20ED00E010B5044605E0084B186800F007FAA4F50044B4F5004FF6D8034B586800FB04F000F0FCF9F1
:4020C00010BD00BF1482FF1F034B1B7813F0040FFAD1024B18707047696500404A65004038B5074B1B782BB938BDFFF7EDFF0134A4B201E005460024285D0028F5D138BD85
:40210000FC83FF1F024B1878C0F34010704700BF01510040024B1878C0F38000704700BF31510040044A137803F0F703C00000F00800184310707047C0510040044A137898
:4021400003F0EF03000100F010001843107070473051004008B500F0B7F90A4A137843F020031370043A137843F0100313700332137843F01003137000F0AAF900F05CF81F
:4021800008BD00BF9C640040014B1878704700BF68640040014B1878704700BF6B640040034B1B7813F0040FFAD0024B18707047686400404C64004008B501E00A4B1B78CD
:4021C0000A4B1B7813F0200FF8D100F07DF9084B1A7842F001021A701A7802F0FE021A7000F076F908BD00BF5C6400406B6400409C64004008B50F22064B1A70FFF7DCFF18
:40220000FFF7C2FFFFF7C6FF0023034A13700332137008BD8C6400408864004008B5054B1B7823B9FFF7E6FF0122024B1A70FFF791FF08BDFE83FF1F054A137843F0010314
:4022400013701032137843F001031370704700BFA2430040024A137843F080031370704779640040014B1870704700BF0A640040014B1870704700BF4A640040014B1870D1
:40228000704700BF2A640040014B1870704700BF89640040014B1878704700BF69640040014B1878704700BF5A64004008B501E0FFF7F6FFFFF7EEFF10F0100FF8D108BD9B
:4022C00008B5124A137803F0C00343F0090313702132137843F0010313706420FFF7C2FF6420FFF7C5FF6420FFF7C8FF0020FFF7CBFF00F0E9F8064A137843F0100313701B
:4023000000F0E6F8FFF7D2FF08BD00BF796400409964004008B5054B1B7823B9FFF7D0FF0122024B1A70FFF795FF08BDFF83FF1F18484FF47F0102680A43026016486FF007
:402340007F4102680A400260704714484FF080510160704772B611484FF000610160FFF707FD0F48006800F0D3F858B10C4800684FF080730B4A0C490FB40FB46FF00600CA
:40238000004700BF6FF0060062B6004762B600DF08B0704720ED00E01CED00E004ED00E01884FF1FD12300008D230000EFF30880054908600548006880F30888704702480F
:4023C000006880F3088870472482FF1F0882FF1F411C8900154A11440968154A136899421AD0F0B444464D4656465F46F0B400B5104C9B002344EFF308851D601160890006
:402400002144096881F3088802BC8E46F0BCA046A946B246BB46F0BC002806DB00B500F06BF802BC8E46FFF7D3BF704798380000F883FF1F0C82FF1FF0B444464D465646B6
:402440005F46F0B400B5EFF3038308B48000174901440968164A0244EFF30883136088471448804704BC4FF08070024382F3038801BC8646F0BCA046A946B246BB46F0BC49
:40248000704780000A4901440A6882F3088804BC4FF08070024382F3038808BC9E46F0BCA046A946B246BB46F0BC7047783800002C84FF1FD92400000230800803D000BF56
:4024C00001380046FCD17047EFF3108072B6704780F31088704700BF08B572B6014B1868FFF7CFFFD081FF1F08B5024B1868FFF7A3FF08BDD081FF1F08B562B6FFF7F4FF0F
:4025000072B600F041F8014B186808BD1884FF1F00280BDA20F000400130054B53F82000044B1B68181A18BF012070470120704798380000F883FF1F054B53F82020054B97
:4025400053F820309A4201D101207047002070474081FF1F4438000008B5FFF747FC084B53F8203043B10022054B43F8202040F00040044B186008BD024B186008BD00BFFE
:40258000BC83FF1F1884FF1F38B5364B1C680022354B1A60354A52F82430013342F82430334B53F824502046FFF7C6FF012801D0A54204D103222F4B43F8242003E00222DE
:4025C0002C4B43F824202C4B53F824102B4A136823EA010313602A4B53F82440214B1C60B5F1FF3F0FD0234B53F82530032B07D10222204B43F825200022224B43F825207A
:402600002846FFF759FCFFF735FCB0F1FF3F0BD1B4F1FF3F03D00022164B43F8242044F00044194B1C6038BD184B53F82020134B1B689A4208D800220E4B43F8242044F041
:402640000044114B1C6038BD00210A4A42F82010094A52F820201343084A1360FFF77CFF38BD00BFD081FF1F0884FF1F4081FF1F1081FF1FE481FF1F54380000F483FF1F02
:40268000D481FF1FDC83FF1F1884FF1F68380000014B1868704700BF8882FF1F0E4B70B51E460E4C0025E41AA410A54204D056F8253098470135F8E701F038F9084B094C37
:4026C0001E46E41AA4100025A54204D056F8253098470135F8E770BD3839000038390000383900004039000010B5431E0A44914204D011F8014B03F8014FF8E710BD0346A4
:402700000244934202D003F8011BFAE7704700000EB400B54FF402719CB0ADF814106FF00041049107914FF6FF711DAB02900690084853F8042BADF81610006802A901930D
:4027400000F064F8029B00221A701CB05DF804EB03B070478882FF1F2DE9F0478E6882469E420C46914698463ED88A8912F4906F3AD02568096902236F1A656905EB450543
:4027800095FBF3F57B1C43449D4238BF1D4653050FD5294600F040FB064698B13A462169FFF7A2FFA38923F4906343F08003A38113E02A4600F08EFB064670B921695046BD
:4027C00000F0DEFA0C23CAF80030A3894FF0FF3043F04003A381BDE8F08726613E44266046466561ED1BA560464528BF464649463246206800F0A8FAA36800209B1BA360AF
:4028000023681E442660BDE8F08700002DE9F04F9DB003938B8980461C060D4616460DD50B695BB9402100F0F7FA2860286118B90C23C8F80030CDE040236B6100230993DE
:4028400020238DF82930DFF89CB130238DF82A3037463C4614F8013B1BB9B7EB060910D003E0252BF9D02746F3E74B46324629464046FFF771FF013000F0A780099B4B4413
:4028800009933B78002B00F0A08000234FF0FF3204930793059206938DF853301A930126052221784E4800F041FA671C049B38B14B4A3C46801A06FA00F018430490EFE7CC
:4028C000D90644BF20228DF853201A0744BF2B228DF8532022782A2A03D0079A00210A200BE0039A111D12680391002A10DA524243F00200079204900BE027463B78013498
:40290000303B092B03D800FB02320121F5E701B107923B782E2B1ED17B782A2B0AD1039B02371A1D1B680392002BB8BF4FF0FF33059310E0002319460593781C0A2407469D
:402940003A780130303A092A03D804FB01210123F5E703B1059103223978224800F0E6F940B14023CBEB000003FA00F0049B013718430490397806221B487E1C8DF8281032
:4029800000F0D4F988B1194B33B9039B073323F007030833039314E003AB00932A46144B04A94046AFF3008007E003AB00932A460F4B04A9404600F093F8B0F1FF3F82466B
:4029C00003D0099B5344099342E7AB895B0601D4099801E04FF0FF301DB0BDE8F08F00BFF6380000FC3800000039000000000000592700002DE9F04791461F460A698B68F0
:402A000006469342B8BF1346C9F8003091F843200C46DDF8208012B10133C9F800302368990642BFD9F800300233C9F80030256815F0060510D104F1190A07E0012352468E
:402A400039463046C04701301AD00135E368D9F800209B1A9D42F1DB94F843302268003318BF012392060FD5E118302081F843005A1C94F845102244023382F8431003E093
:402A80004FF0FF30BDE8F08704F1430239463046C0470130F4D02268D9F80050E36802F00602042A08BF5D1B2269A3680CBF25EAE57500259342C4BF9B1AED184FF00009BB
:402AC0001A344D4509D00123224639463046C0470130D5D009F10109F3E70020BDE8F0872DE9F04317460A7E85B06E2A984606460C460C9B01F1430E00F0AE8011D8632AB0
:402B000022D009D8002A00F0BB80582A40F0CA8081F84520834955E0642A1ED0692A1CD0C0E0732A00F0B08009D86F2A2ED0702A40F0B8800A6842F020020A603EE0752AD3
:402B400024D0782A3AD0ADE01A6801F14205111D1960136884F84230A8E021681A6811F0800F02D0111D196008E011F0400F02F10401196002D0B2F9003000E01368002BE5
:402B80003CDA2D225B4284F8432037E021681A6811F0800F02D0111D196007E011F0400F02F10401196001D0138800E01368227E5C496F2A14BF0A2208221BE078225A495B
:402BC00084F845202268186812F0800F00F104051D6003D1550601D5038800E00368D00744BF42F0200222601BB9226822F0200222601022002084F8430001E049490A2293
:402C00006568002DA56008DB206820F0040020602BB9002D7DD175460CE0002B79D07546B3FBF2F002FB1033CB5C05F8013D03460028F5D1082A0BD12368DA0708D5236915
:402C400062689A42DEBF302305F8013C05F1FF35C5EB0E0323612EE008681A6810F0800F496903D0101D1860136808E010F0400F02F104001860136801D0198000E01960FD
:402C800000232361754616E01A68111D1960156800216268284600F049F808B1401B6060636804E004F1420584F8422001232361002384F84330CDF800803B4603AA21465B
:402CC0003046FFF797FE013002D14FF0FF3026E023692A4639463046C0470130F5D023689B0710D5002504F1190907E001234A4639463046C0470130E7D00135E368039A82
:402D00009B1A9D42F2DBE068039B9842B8BF184605E00B7804F1420584F842308AE705B0BDE8F083073900001839000010B5C9B202449042034605D01C7801308C42F8D16A
:402D4000184610BD002010BD884210B501EB020301D8421E0BE09842FBD28118D21AD34204D013F8014D01F8014DF8E710BD994204D011F8014B02F8014FF8E710BD00003C
:402D800038B50546002944D051F8043C0C1F002BB8BFE41800F0D4F81E4A1368114613B96360146030E0A3420DD92268A018834201BF18685B681218226063600C6023E090
:402DC000A24203D813465A68002AF9D118681918A1420BD12168014458188242196013D110685268014419605A600DE002D90C232B6009E021686018824201BF106852686A
:402E00000918216062605C602846BDE8384000F098B838BD0484FF1F70B5CD1C25F0030508350C2D38BF0C25002D064601DBA94202D90C23336046E000F082F8234B1C68E4
:402E40001A462146A1B10B685B1B0ED40B2B03D90B60CC18CD501EE08C420BBF63684B681360636018BF0C4615E00C464968E9E7174C23681BB9304600F052F82060294654
:402E8000304600F04DF8431C18D0C41C24F00304A0420DD12560304600F053F804F10B00231D20F00700C31A0ED05A42E25070BD211A304600F034F80130EBD10C233360A6
:402EC000304600F03EF8002070BD00BF0484FF1F0084FF1FF8B5074615460E4621B91146BDE8F840FFF798BF1AB9FFF749FF2846F8BD00F027F885420ED929463846FFF70A
:402F00008BFF044650B131462A46FFF7EDFB31463846FFF735FF01E03046F8BD2046F8BD38B5064C0023054608462360FEF7F6FA431C02D1236803B12B6038BD388AFF1F7D
:402F40007047704751F8040C0028BEBF091851F8043CC01804387047000000000FB103053C3CB203053C3CB306053C3C053C3CB40103C003280804C101C0C2020D00C30284
:402F80008D2AC4028DEEC5011A3601C0E0100422070A2E30252A28262E3A00010313E10F16060D2D26232727252D3B000104133A0105290000000000003E5B4F5B3E3E6B8C
:402FC0004F6B3E1C3E7C3E1C183C7E3C181C577D571C1C5E7F5E1C00183C1800FFE7C3E7FF0018241800FFE7DBE7FF30483A060E2629792926407F050507407F05253F5A88
:403000003CE73C5A7F3E1C1C08081C1C3E7F14227F22145F5F005F5F06097F017F006689956A606060606094A2FFA29408047E040810207E201008082A1C08081C2A0808FF
:403040001E101010100C1E0C1E0C30383E3830060E3E0E06000000000000005F00000007000700147F147F14242A7F2A12231308646236495620500008070300001C224194
:40308000000041221C002A1C7F1C2A08083E080800807030000808080808000060600020100804023E5149453E00427F400072494949462141494D331814127F102745454A
:4030C00045393C4A49493141211109073649494936464949291E0000140000004034000000081422411414141414004122140802015909063E415D594E7C1211127C7F4953
:403100004949363E414141227F4141413E7F494949417F090909013E414151737F0808087F00417F41002040413F017F081422417F404040407F021C027F7F0408107F3E7F
:403140004141413E7F090909063E4151215E7F09192946264949493203017F01033F4040403F1F2040201F3F4038403F631408146303047804036159494D43007F41414112
:403180000204081020004141417F04020102044040404040000307080020545478407F284444383844444428384444287F385454541800087E090218A4A49C787F080404D6
:4031C0007800447D40002040403D007F1028440000417F40007C047804787C080404783844444438FC1824241818242418FC7C08040408485454542404043F44243C40407B
:40320000207C1C2040201C3C4030403C44281028444C9090907C4464544C4400083641000000770000004136080002010204023C2623263C1EA1A161123A4040207A38540C
:4032400054555921555579412254547842215554784020545579400C1E5272123955555559395454545939555454580000457C410002457D420001457C407D1211127DF069
:40328000282528F07C545545002054547C547C0A097F4932494949323A4444443A324A4848303A4141217A3A42402078009DA0A07D3D4242423D3D4040403D3C24FF24246F
:4032C000487E4943662B2FFC2F2BFF0929F620C0887E090320545479410000447D413048484A32384040227A007A0A0A727D0D19317D2629292F28262929292630484D404D
:4033000020380808080808080808382F10C8ACBA2F102834FA00007B000008142A142222142A14085500550055AA55AA55AAFF55FF55FF000000FF00101010FF0014141490
:40334000FF001010FF00FF1010F010F0141414FC001414F700FF0000FF00FF1414F404FC141417101F10101F101F1414141F00101010F0000000001F101010101F101010AB
:4033800010F010000000FF101010101010101010FF10000000FF140000FF00FF00001F10170000FC04F414141710171414F404F40000FF00F714141414141414F700F71416
:4033C0001414171410101F101F141414F4141010F010F000001F101F0000001F14000000FC140000F010F01010FF10FF141414FF141010101F00000000F010FFFFFFFFFF70
:40340000F0F0F0F0F0FFFFFF0000000000FFFF0F0F0F0F0F3844443844FC4A4A4A347E02020606027E027E0263554941633844443C04407E201E2006027E020299A5E7A5A7
:40344000991C2A492A1C4C7201724C304A4D4D303048784830BC625A463D3E494949007E0101017E2A2A2A2A2A44445F444440514A444040444A51400000FF0103E080FF41
:40348000000008086B6B083612362436060F090F06000018180000001010003040FF0101001F01011E00191D1712003C3C3C3C000000000054465400427566666572206FED
:4034C000766572666C6F77000A00000055415254207374617274656400000000203A20003A00000020000000253032640000000038380000F50C0000010000000100000038
:40350000690C0000320000000D0D0000FA0000000200000000000000BC35000002000000020000007C35000004000000010000003C350000040000000300000002000000A9
:403540000000000000000000C90F0000010000000100000000000000D90F0000030000000100000000000000E90F0000040000000100000000000000F90F0000020000007E
:4035800001000000000000007D0F0000010000000200000000000000990F0000030000000200000000000000A90F0000040000000200000000000000B90F00000200000046
:4035C00002000000000000006D0F00000500000000000000000000003D0F000001000000283600000300000002000000F83500000300000002000000010000000100000064
:4036000000000000751000000200000001000000000000009D100000040000000200000000000000751000000100000001000000000000007510000003000000020000003E
:4036400000000000000000000200000001000000000000009D10000002000000010000000000000099100000051200000912000000000000000000000000000000000000BC
:40368000000000000000000000000000000000000D12000091120000010000000000000001000000B836000000000000000000000000000000000000030000004051004084
:4036C0003000F0510040100000000140001000140140000800400140000A004C014000020050014020000000605200407806004806000000FF0001010202020203030303BD
:403700000303030304040404040404040404040404040404050505050505050505050505050505050505050505050505050505050505050506060606060606060606060655
:4037400006060606060606060606060606060606060606060606060606060606060606060606060606060606060606060606060606060606070707070707070707070707BD
:403780000707070707070707070707070707070707070707070707070707070707070707070707070707070707070707070707070707070707070707070707070707070749
:4037C0000707070707070707070707070707070707070707070707070707070707070707070707070707070707070707070707070707070701000000FC3700000000000029
:4038000000000000020000000000000000000000FFFFFFFF000000000000000000000000000000000000000010270000010000000000000000000000000000000000000052
:403840000100000001000000010000000100000001000000800000000100000010000000040000000100000001000000010000001000000004000000310C0000650C0000E9
:40388000110F0000E50E0000E9240000E9240000E9240000E92400000000000000000000000000000000000001000000616C6D5F316D730065765F6576656E745F6F6E443A
:4038C0006174610074736B5F696E69740000000074736B5F6261636B67726F756E64000074736B5F696F000074736B5F636F6E74726F6C004300232D302B2000686C4C00F3
:403900006566674546470030313233343536373839414243444546003031323334353637383961626364656600000000F8B500BFF8BC08BC9E4670474D0000009915000005
:40394000F8B500BFF8BC08BC9E4670472900000060390000C880FF1FC8010000B007000000000000FFFF0100010000009483FF1F3C000000010000009383FF1F1801000061
:40398000000000000000000090360000000000000000000068360000408AFF1FAC38000000000000FFFFFFFFFFFFFFFFFFFFFFFFFFFFFFFFFFFFFFFF0100000002000000E8
:4039C00003000000FFFFFFFF0000000000000000040000000200000001000000010000000100000001000000FFFFFFFFFFFFFFFFFFFFFFFFFFFFFFFFFFFFFFFFFFFFFFFFD6
:403A0000FFFFFFFFFFFFFFFFFFFFFFFFFFFFFFFFFFFFFFFFFFFFFFFFFFFFFFFFFFFFFFFFFFFFFFFFFFFFFFFFFFFFFFFFFFFFFFFFFFFFFFFFFFFFFFFFFFFFFFFFFFFFFFFFC6
:403A4000FFFFFFFFFFFFFFFFFFFFFFFFFFFFFFFFFFFFFFFFFFFFFFFFFFFFFFFFFFFFFFFFFFFFFFFFFFFFFFFFFFFFFFFFFFFFFFFFFFFFFFFFFFFFFFFFFFFFFFFF030000007F
:403A8000030000000300000003000000B4380000C4380000D0380000E0380000E8380000388AFF1F000000001088FF1F0000E02EC05D00001800000000366E010000000057
:403AC0000000000000000000000000000000000000000000000000000000000000000000F4380000000000000000000000000000000000000000000000000000000000009A
:403B000000000000000000000000000000000000000000000000000000000000000000002882FF1F00000000000000000000000000000000000000000000000000000000BD
:403B40000000000000000000000000000000000000000000000000000000000000000000000000000000000000000000000000000000000000000000000000000000000045
:403B80000000000000000000000000000000000000000000000000000000000000000000000000000000000000000000000000000000000000000000000000000000000005
:403BC00000000000000000000000000000000000000000000000000000000000000000000000000000000000000000000000000000000000000000000000000000000000C5
:403C00000000000000000000000000000000000000000000000000000000000000000000000000000000000000000000000000000000000000000000000000000000000084
:020000040003F7
:0200000480007A
:400000000264004003650040010701405008014045090140580A01403B0B0140560C01403A0D01405F180140401901404A1A01404D1B014002420140014301400444014079
:40004000024501400146014004470140014C0140074D014005500140890D8C0F8838890F8B72EA40010802200508061008090A060B020D010E1010051106120A1504180357
:400080001A0C1B011C021E0D1F012506262029082D013020321033063501360F370839283A803E053F444002450449FF4A074BFF4C404D204EF04F055008540958045904F8
:4000C0005A045B045C105D015F01604061A8624063208424864887028C04902E91019251941996229B029C70B101B302B407B678B880BA20BF05D280D405D804D904DB0492
:40010000DD20DF0100040140020104080520064209010A010B600E0A0F441704180419201A011E021F45210222042408268027202D202F2232213540360237183A043C80DE
:400140003D023E203F0447204E10562059015A885C605D045F026401700178017A808D0290409104928093609406978099019A059B029D20A224B201B780C0F5C2DDC4203C
:40018000CA70CCF5CEF2D020D6FBD810EA400301040206380C0D100D11021411160218021A0D1E20200D240D280D2C022E342F02340F3501363037023A204020410345D0E5
:4001C00046014702481649FF4AFF4BFF4DA04F045018580459045A045C205D025F01604062C06440654066C068C06AC06CC06EC08202858489018C018D0A8F10910492015D
:4002000095809704980199569B099D84A184A201A401A507A738A960AA02AC01AD04AF80B108B201B37FB580B602B780B908BE04BF51D440D804D904DB04DC02DF01008444
:4002400006420A490B200C010E040F80102811021340152017451A091D041F80211022602450270A2A402E422F28330235203602374438023C103E043F40411449015104F7
:400280005244640165046620910492449360941097809A239B459D209E409F08A068A101A206A36AC095C25FC4FFCAF8CCF1CE71D006D870000601040402050406040802BA
:4002C0000A050C040D010F06100211011306170418071C0620012104220224042602270329072C022D042E04310734073B02405641024230450E46FD47CB483D49FF4AFFC5
:400300004BFF4C224EF04F0850045602572C580459045A045B045F0162C0644065016610671168C069016B116C406D016E406F018108820183028D018F0891089502970886
:4003400099089B029D0AA10AA503A704A90CAB03AD02B001B10FBB02D804D904DC02DF0102400520060107500C800D020E08154217041B021D201E081F3021012340250280
:40038000260229202A022B212D202E422F203028310233403602370438023B403D023E043F40452047084D244F405621574967806C296D426E446F5574C076029410A810AE
:4003C000C0F8C2D0C4B0CAFFCCCFCED9D060D230D880EC01030C042106CA086709200B031002111112151306150C171318441A2A2511270E28672B08300732803460350FC6
:400400003618373039803B203E404065410242034401460C47E0482449FF4AFF4BFF4C624DA04EF04F41500C5418580459045A045B045C115D115F016640670269106A303F
:400440006B106D106E106F1280148308840C850A867187148B158C108D138EAC8F0C941095039640971499139B049E03A620A8DCAA22AC09AED0B10FB4E0B61FB710BA2048
:40048000BB02BF40D401D804D904DB04DC11DD10DF010040028003200420050808040A210E441120121115101A031B201C201D801E44204022422409251027082C042F20DA
:4004C000300833203602370838493A313C013E2045A047044F505642580159045A805B205F02670A8B129220930A96029A209D409E429F1CA440A602A722A820A940C06D46
:40050000C255C447CA60CCC6CEAFD070D230D68FD8300101090115011801310132013E0440534102450E460B470C481549FF4AFF4BFF4EF04F44500C580459045A045C101A
:400540005D015F0166C06A406B02800C8110840185FF8B018C028FE69003918094339508960C983F99189C1F9D199E209FE2A139A223A3C4A404A541A81CA9E7AA23AB1871
:40058000AC08ADC0B010B20FB31FB538B62CB7C0BAA8BB08BE01D602D710D804D904DB04DC11DD10DF010508068007010B040E660F1015021601171819041C401D601E26B8
:4005C0001F042101234027162C802D082E402F0433083540372938223C203E063F40422043204A024B04500852805C406C116D106F087603772880808310840187048840F1
:4006000089088A048E808F2092409420951097509A209B019C019D4C9F16A010A202A320A448A520A680B204B301B408B720C0B0C2F2C4F0CAF0CCF2CEF5D006D208D610A7
:400640005704D440B70478807F02DC01DE04A702A880A7028D40B302E408EC0191801040798088409180C408DC01E20100070C070E0510021C02000014840000400000004F
:4006800038C0C00000000000800040BCBC00B40000000000000B0B000000000000010100000000000418180008000000000000000000000000000000000000000000000042
:4006C00000000000000000000000000000000000000000000000000000000000000000000000000000000000000000000000000000000000000000000000000000000000FA
:4007000000000000000000000000000000000000000000000000000000000000000000000000000000000000000000000000000000000000000000000000000000000000B9
:400740000000000000000000000000000000000000000000000000000000000000000000000000000000000000000000000000000000000000000000000000000000000079
:400780000000000000000000000000000000000000000000000000000000000000000000000000000000000000000000000000000000000000000000000000000000000039
:0200000490006A
:0400000000004005B7
:0200000490105A
:04000000BC90ACAF55
:0200000490303A
:02000000278B4C
:0200000490402A
:4000000000000000000000000000000000000000000000000000000000000000000000000000000000000000000000000000000000000000000000000000000000000000C0
:400040000000000000000000000000000000000000000000000000000000000000000000000000000000000000000000000000000000000000000000000000000000000080
:400080000000000000000000000000000000000000000000000000000000000000000000000000000000000000000000000000000000000000000000000000000000000040
:4000C0000000000000000000000000000000000000000000000000000000000000000000000000000000000000000000000000000000000000000000000000000000000000
:0200000490501A
:0C00000000012E16106900012E2D37F4AF
:00000001FF